{
  "abi": [
    {
      "inputs": [],
      "name": "alarm1",
      "outputs": [
        {
          "internalType": "uint256",
          "name": "",
          "type": "uint256"
        }
      ],
      "stateMutability": "view",
      "type": "function"
    },
    {
      "inputs": [],
      "name": "alarm2",
      "outputs": [
        {
          "internalType": "uint256",
          "name": "",
          "type": "uint256"
        }
      ],
      "stateMutability": "view",
      "type": "function"
    },
    {
      "inputs": [
        {
          "internalType": "address",
          "name": "_newOwner",
          "type": "address"
        }
      ],
      "name": "changeOwner",
      "outputs": [],
      "stateMutability": "nonpayable",
      "type": "function"
    },
    {
      "inputs": [],
      "name": "getTimestamp",
      "outputs": [
        {
          "internalType": "uint256",
          "name": "",
          "type": "uint256"
        }
      ],
      "stateMutability": "view",
      "type": "function"
    },
    {
      "inputs": [
        {
          "internalType": "uint256",
          "name": "_alarm1",
          "type": "uint256"
        }
      ],
      "name": "initialize",
      "outputs": [],
      "stateMutability": "nonpayable",
      "type": "function"
    },
    {
      "inputs": [],
      "name": "initialized",
      "outputs": [
        {
          "internalType": "bool",
          "name": "",
          "type": "bool"
        }
      ],
      "stateMutability": "view",
      "type": "function"
    },
    {
      "inputs": [],
      "name": "owner",
      "outputs": [
        {
          "internalType": "address",
          "name": "",
          "type": "address"
        }
      ],
      "stateMutability": "view",
      "type": "function"
    },
    {
      "inputs": [],
      "name": "proxiableUUID",
      "outputs": [
        {
          "internalType": "bytes32",
          "name": "",
          "type": "bytes32"
        }
      ],
      "stateMutability": "pure",
      "type": "function"
    },
    {
      "inputs": [
        {
          "internalType": "uint256",
          "name": "_timestamp",
          "type": "uint256"
        }
      ],
      "name": "setAlarm1",
      "outputs": [],
      "stateMutability": "nonpayable",
      "type": "function"
    },
    {
      "inputs": [
        {
          "internalType": "address",
          "name": "_newImpl",
          "type": "address"
        }
      ],
      "name": "upgradeTo",
      "outputs": [],
      "stateMutability": "nonpayable",
      "type": "function"
    },
    {
      "inputs": [
        {
          "internalType": "address",
          "name": "_newImpl",
          "type": "address"
        },
        {
          "internalType": "bytes",
          "name": "data",
          "type": "bytes"
        }
      ],
      "name": "upgradeToAndCall",
      "outputs": [],
      "stateMutability": "nonpayable",
      "type": "function"
    }
  ],
  "bytecode": {
    "object": "0x608060405234801561001057600080fd5b5061049a806100206000396000f3fe608060405234801561001057600080fd5b50600436106100a95760003560e01c80634f1ef286116100715780634f1ef2861461011257806352d1902d146101255780638da5cb5b1461014b578063a6f9dae114610176578063e744bf4d146101a6578063fe4b84df146101b957600080fd5b806306c24bd7146100ae5780631236c069146100ca578063158ef93e146100d3578063188ec356146100f75780633659cfe6146100fd575b600080fd5b6100b760015481565b6040519081526020015b60405180910390f35b6100b760025481565b6000546100e790600160a01b900460ff1681565b60405190151581526020016100c1565b426100b7565b61011061010b366004610316565b6101cc565b005b610110610120366004610338565b6101f8565b7fc5f16f0fcc639fa48a6947836d9850f504798523bf8c9a3a87d5876cf622bcf76100b7565b60005461015e906001600160a01b031681565b6040516001600160a01b0390911681526020016100c1565b610110610184366004610316565b600080546001600160a01b0319166001600160a01b0392909216919091179055565b6101106101b43660046103fa565b600155565b6101106101c73660046103fa565b61028e565b6101f57fc5f16f0fcc639fa48a6947836d9850f504798523bf8c9a3a87d5876cf622bcf7829055565b50565b6102217fc5f16f0fcc639fa48a6947836d9850f504798523bf8c9a3a87d5876cf622bcf7839055565b6000826001600160a01b03168260405161023b9190610413565b600060405180830381855af49150503d8060008114610276576040519150601f19603f3d011682016040523d82523d6000602084013e61027b565b606091505b505090508061028957600080fd5b505050565b600054600160a01b900460ff16156102e25760405162461bcd60e51b8152602060048201526013602482015272105b1c9958591e481a5b9a5d1a585b1a5e9959606a1b604482015260640160405180910390fd5b6001556000805460ff60a01b1916600160a01b179055565b80356001600160a01b038116811461031157600080fd5b919050565b60006020828403121561032857600080fd5b610331826102fa565b9392505050565b6000806040838503121561034b57600080fd5b610354836102fa565b9150602083013567ffffffffffffffff8082111561037157600080fd5b818501915085601f83011261038557600080fd5b8135818111156103975761039761044e565b604051601f8201601f19908116603f011681019083821181831017156103bf576103bf61044e565b816040528281528860208487010111156103d857600080fd5b8260208601602083013760006020848301015280955050505050509250929050565b60006020828403121561040c57600080fd5b5035919050565b6000825160005b81811015610434576020818601810151858301520161041a565b81811115610443576000828501525b509190910192915050565b634e487b7160e01b600052604160045260246000fdfea2646970667358221220b739ca8d193505cc67b431058f5342d744019fd50d61e56c9182a8490645a82064736f6c63430008060033",
    "linkReferences": {}
  },
  "methodIdentifiers": {
    "alarm1()": "06c24bd7",
    "alarm2()": "1236c069",
    "changeOwner(address)": "a6f9dae1",
    "getTimestamp()": "188ec356",
    "initialize(uint256)": "fe4b84df",
    "initialized()": "158ef93e",
    "owner()": "8da5cb5b",
    "proxiableUUID()": "52d1902d",
    "setAlarm1(uint256)": "e744bf4d",
    "upgradeTo(address)": "3659cfe6",
    "upgradeToAndCall(address,bytes)": "4f1ef286"
  },
  "id": 21
}