{
  "abi": [
    {
      "inputs": [],
      "name": "proxiableUUID",
      "outputs": [
        {
          "internalType": "bytes32",
          "name": "",
          "type": "bytes32"
        }
      ],
      "stateMutability": "pure",
      "type": "function"
    }
  ],
  "bytecode": {
    "object": "0x6080604052348015600f57600080fd5b5060968061001e6000396000f3fe6080604052348015600f57600080fd5b506004361060285760003560e01c806352d1902d14602d575b600080fd5b7fc5f16f0fcc639fa48a6947836d9850f504798523bf8c9a3a87d5876cf622bcf760405190815260200160405180910390f3fea2646970667358221220fc06dfdc20b8f0217e8d92c6934548f5af8746952259d80be2bed00bf9aaa4c664736f6c63430008060033",
    "linkReferences": {}
  },
  "methodIdentifiers": {
    "proxiableUUID()": "52d1902d"
  },
  "id": 20
}