{
  "abi": [
    {
      "inputs": [
        {
          "internalType": "address",
          "name": "_implementation",
          "type": "address"
        }
      ],
      "stateMutability": "nonpayable",
      "type": "constructor"
    },
    {
      "stateMutability": "payable",
      "type": "fallback"
    },
    {
      "inputs": [
        {
          "internalType": "address",
          "name": "_newImpl",
          "type": "address"
        }
      ],
      "name": "upgradeTo",
      "outputs": [],
      "stateMutability": "nonpayable",
      "type": "function"
    },
    {
      "inputs": [
        {
          "internalType": "address",
          "name": "_newImpl",
          "type": "address"
        },
        {
          "internalType": "bytes",
          "name": "data",
          "type": "bytes"
        }
      ],
      "name": "upgradeToAndCall",
      "outputs": [],
      "stateMutability": "nonpayable",
      "type": "function"
    },
    {
      "stateMutability": "payable",
      "type": "receive"
    }
  ],
  "bytecode": {
    "object": "0x608060405234801561001057600080fd5b5060405161053d38038061053d83398101604081905261002f916100a7565b8061005161004c600160008051602061051d8339815191526100d7565b829055565b5061006e61004c600160008051602061051d8339815191526100d7565b6100a161009c60017fb53127684a568b3173ae13b9f8a6016e243e63b6e8ee1178d6a717850b5d61046100d7565b339055565b506100fc565b6000602082840312156100b957600080fd5b81516001600160a01b03811681146100d057600080fd5b9392505050565b6000828210156100f757634e487b7160e01b600052601160045260246000fd5b500390565b6104128061010b6000396000f3fe60806040526004361061002d5760003560e01c80633659cfe6146100845780634f1ef286146100a457610034565b3661003457005b61003c6100c4565b6001600160a01b0316336001600160a01b0316141561005a57600080fd5b61008261007d61007960016000805160206103bd833981519152610381565b5490565b6100f9565b005b34801561009057600080fd5b5061008261009f366004610262565b61011d565b3480156100b057600080fd5b506100826100bf366004610284565b61016a565b60006100f461007960017fb53127684a568b3173ae13b9f8a6016e243e63b6e8ee1178d6a717850b5d6104610381565b905090565b3660008037600080366000845af43d6000803e808015610118573d6000f35b3d6000fd5b6101256100c4565b6001600160a01b0316336001600160a01b031614156101625761015f61015a60016000805160206103bd833981519152610381565b829055565b50565b61015f610225565b6101726100c4565b6001600160a01b0316336001600160a01b03161415610219576101ac6101a760016000805160206103bd833981519152610381565b839055565b6000826001600160a01b0316826040516101c69190610346565b600060405180830381855af49150503d8060008114610201576040519150601f19603f3d011682016040523d82523d6000602084013e610206565b606091505b505090508061021457600080fd5b505050565b610221610225565b5050565b61024461007d61007960016000805160206103bd833981519152610381565b565b80356001600160a01b038116811461025d57600080fd5b919050565b60006020828403121561027457600080fd5b61027d82610246565b9392505050565b6000806040838503121561029757600080fd5b6102a083610246565b9150602083013567ffffffffffffffff808211156102bd57600080fd5b818501915085601f8301126102d157600080fd5b8135818111156102e3576102e36103a6565b604051601f8201601f19908116603f0116810190838211818310171561030b5761030b6103a6565b8160405282815288602084870101111561032457600080fd5b8260208601602083013760006020848301015280955050505050509250929050565b6000825160005b81811015610367576020818601810151858301520161034d565b81811115610376576000828501525b509190910192915050565b6000828210156103a157634e487b7160e01b600052601160045260246000fd5b500390565b634e487b7160e01b600052604160045260246000fdfe360894a13ba1a3210667c828492db98dca3e2076cc3735a920a3ca505d382bbda2646970667358221220e2bf2c6e654e2107173fa062eaadd5349b53af87a633b590511b7191bceb6c4564736f6c63430008060033360894a13ba1a3210667c828492db98dca3e2076cc3735a920a3ca505d382bbd",
    "linkReferences": {}
  },
  "methodIdentifiers": {
    "upgradeTo(address)": "3659cfe6",
    "upgradeToAndCall(address,bytes)": "4f1ef286"
  },
  "id": 22
}