{
  "abi": [
    {
      "inputs": [],
      "name": "alarm1",
      "outputs": [
        {
          "internalType": "uint256",
          "name": "",
          "type": "uint256"
        }
      ],
      "stateMutability": "view",
      "type": "function"
    },
    {
      "inputs": [],
      "name": "alarm2",
      "outputs": [
        {
          "internalType": "uint256",
          "name": "",
          "type": "uint256"
        }
      ],
      "stateMutability": "view",
      "type": "function"
    },
    {
      "inputs": [
        {
          "internalType": "address",
          "name": "_newOwner",
          "type": "address"
        }
      ],
      "name": "changeOwner",
      "outputs": [],
      "stateMutability": "nonpayable",
      "type": "function"
    },
    {
      "inputs": [],
      "name": "getTimestamp",
      "outputs": [
        {
          "internalType": "uint256",
          "name": "",
          "type": "uint256"
        }
      ],
      "stateMutability": "view",
      "type": "function"
    },
    {
      "inputs": [
        {
          "internalType": "uint256",
          "name": "_alarm1",
          "type": "uint256"
        }
      ],
      "name": "initialize",
      "outputs": [],
      "stateMutability": "nonpayable",
      "type": "function"
    },
    {
      "inputs": [],
      "name": "initialized",
      "outputs": [
        {
          "internalType": "bool",
          "name": "",
          "type": "bool"
        }
      ],
      "stateMutability": "view",
      "type": "function"
    },
    {
      "inputs": [],
      "name": "owner",
      "outputs": [
        {
          "internalType": "address",
          "name": "",
          "type": "address"
        }
      ],
      "stateMutability": "view",
      "type": "function"
    },
    {
      "inputs": [
        {
          "internalType": "uint256",
          "name": "_timestamp",
          "type": "uint256"
        }
      ],
      "name": "setAlarm1",
      "outputs": [],
      "stateMutability": "nonpayable",
      "type": "function"
    }
  ],
  "bytecode": {
    "object": "0x608060405234801561001057600080fd5b50610245806100206000396000f3fe608060405234801561001057600080fd5b50600436106100885760003560e01c80638da5cb5b1161005b5780638da5cb5b146100dc578063a6f9dae114610107578063e744bf4d14610139578063fe4b84df1461014c57600080fd5b806306c24bd71461008d5780631236c069146100a9578063158ef93e146100b2578063188ec356146100d6575b600080fd5b61009660015481565b6040519081526020015b60405180910390f35b61009660025481565b6000546100c690600160a01b900460ff1681565b60405190151581526020016100a0565b42610096565b6000546100ef906001600160a01b031681565b6040516001600160a01b0390911681526020016100a0565b6101376101153660046101c6565b600080546001600160a01b0319166001600160a01b0392909216919091179055565b005b6101376101473660046101f6565b600155565b61013761015a3660046101f6565b600054600160a01b900460ff16156101ae5760405162461bcd60e51b8152602060048201526013602482015272105b1c9958591e481a5b9a5d1a585b1a5e9959606a1b604482015260640160405180910390fd5b6001556000805460ff60a01b1916600160a01b179055565b6000602082840312156101d857600080fd5b81356001600160a01b03811681146101ef57600080fd5b9392505050565b60006020828403121561020857600080fd5b503591905056fea2646970667358221220f81055870014351bbae971421cb663b69d434c906a01303dd0cd5c9b788f025564736f6c63430008060033",
    "linkReferences": {}
  },
  "methodIdentifiers": {
    "alarm1()": "06c24bd7",
    "alarm2()": "1236c069",
    "changeOwner(address)": "a6f9dae1",
    "getTimestamp()": "188ec356",
    "initialize(uint256)": "fe4b84df",
    "initialized()": "158ef93e",
    "owner()": "8da5cb5b",
    "setAlarm1(uint256)": "e744bf4d"
  },
  "id": 20
}