{
  "abi": [
    {
      "inputs": [
        {
          "internalType": "address",
          "name": "_implementation",
          "type": "address"
        }
      ],
      "stateMutability": "nonpayable",
      "type": "constructor"
    },
    {
      "stateMutability": "payable",
      "type": "fallback"
    },
    {
      "inputs": [
        {
          "internalType": "address",
          "name": "_newImpl",
          "type": "address"
        }
      ],
      "name": "upgradeTo",
      "outputs": [],
      "stateMutability": "nonpayable",
      "type": "function"
    },
    {
      "inputs": [
        {
          "internalType": "address",
          "name": "_newImpl",
          "type": "address"
        },
        {
          "internalType": "bytes",
          "name": "data",
          "type": "bytes"
        }
      ],
      "name": "upgradeToAndCall",
      "outputs": [],
      "stateMutability": "nonpayable",
      "type": "function"
    },
    {
      "stateMutability": "payable",
      "type": "receive"
    }
  ],
  "bytecode": {
    "object": "0x608060405234801561001057600080fd5b5060405161042238038061042283398101604081905261002f91610068565b61006261005d60017f360894a13ba1a3210667c828492db98dca3e2076cc3735a920a3ca505d382bbd610098565b829055565b506100bd565b60006020828403121561007a57600080fd5b81516001600160a01b038116811461009157600080fd5b9392505050565b6000828210156100b857634e487b7160e01b600052601160045260246000fd5b500390565b610356806100cc6000396000f3fe60806040526004361061002d5760003560e01c80633659cfe6146100705780634f1ef2861461009057610034565b3661003457005b61006e61006961006560017f360894a13ba1a3210667c828492db98dca3e2076cc3735a920a3ca505d382bbd6102e5565b5490565b6100b0565b005b34801561007c57600080fd5b5061006e61008b3660046101c6565b6100d9565b34801561009c57600080fd5b5061006e6100ab3660046101e8565b61010f565b3660008037600080366000845af43d6000803e8080156100cf573d6000f35b3d6000fd5b505050565b61010c61010760017f360894a13ba1a3210667c828492db98dca3e2076cc3735a920a3ca505d382bbd6102e5565b829055565b50565b61014261013d60017f360894a13ba1a3210667c828492db98dca3e2076cc3735a920a3ca505d382bbd6102e5565b839055565b6000826001600160a01b03168260405161015c91906102aa565b600060405180830381855af49150503d8060008114610197576040519150601f19603f3d011682016040523d82523d6000602084013e61019c565b606091505b50509050806100d457600080fd5b80356001600160a01b03811681146101c157600080fd5b919050565b6000602082840312156101d857600080fd5b6101e1826101aa565b9392505050565b600080604083850312156101fb57600080fd5b610204836101aa565b9150602083013567ffffffffffffffff8082111561022157600080fd5b818501915085601f83011261023557600080fd5b8135818111156102475761024761030a565b604051601f8201601f19908116603f0116810190838211818310171561026f5761026f61030a565b8160405282815288602084870101111561028857600080fd5b8260208601602083013760006020848301015280955050505050509250929050565b6000825160005b818110156102cb57602081860181015185830152016102b1565b818111156102da576000828501525b509190910192915050565b60008282101561030557634e487b7160e01b600052601160045260246000fd5b500390565b634e487b7160e01b600052604160045260246000fdfea26469706673582212200612187f636c90fd96b5fbb2bf34960040cf4f84e2906dd0af8b12e903f7352864736f6c63430008060033",
    "linkReferences": {}
  },
  "methodIdentifiers": {
    "upgradeTo(address)": "3659cfe6",
    "upgradeToAndCall(address,bytes)": "4f1ef286"
  },
  "id": 17
}